:1000000002008AE5836003E49322A882E622E58366
:100010006004E4938003A882E6F822E5836004E4A8
:10002000938003A882E6F922E5836004E4938003C9
:10003000A882E6FA22E5836004E4938003A882E6BE
:10004000FB22E5836004E4938003A882E6FC22E5BA
:10005000836004E4938003A882E6FD22E5836004C4
:10006000E4938003A882E6FE22E5836004E49380A3
:1000700003A882E6FF22E4F5D075812678207A066F
:0D008000F608DAFC12011002000002007602
:10010000313233343536373839414243444546007D
:100110000203F87524017525007580387580807597
:10012000A00175A000E4F522F5237520FF7521FFDD
:1001300075B0FEE5902402700C8000E52345227026
:1001400004800080048000801475800175A0037510
:10015000A002E4F520F521752200752301E5902425
:1001600003700C8000E52345227004800080048029
:1001700000801575800175A00375A00275200075BB
:100180002103752200752301E5902405700C800081
:10019000E52345227004800080048000801575806E
:1001A0000175A00375A00275200075210675220057
:1001B000752301E5902409700C8000E52345227029
:1001C00004800080048000801575800175A003758F
:1001D000A002752000752109752200752301E590A4
:1001E0002411700C8000E5234522700480008004F7
:1001F0008000801575800175A00375A00275200030
:1002000075210C75220075230175B0FDE59024025F
:10021000700C8000E523452270048000800480007B
:10022000801575800175A00375A0027520007521E9
:1002300001752200752301E5902403700C8000E510
:1002400023452270048000800480008015758001A1
:1002500075A00375A0027520007521047522007534
:100260002301E5902405700C8000E52345227004ED
:10027000800080048000801575800175A00375A042
:1002800002752000752107752200752301E5902471
:1002900009700C8000E523452270048000800480F2
:1002A00000801575800175A00375A002752000758A
:1002B000210A752200752301E5902411700C80003D
:1002C000E52345227004800080048000801575803D
:1002D0000175A00375A00275200075210D7522001F
:1002E00075230175B0FBE5902402700C8000E523B6
:1002F000452270048000800480008015758001759F
:10030000A00375A0027520007521027522007523D7
:1003100001E5902403700C8000E5234522700480E1
:100320000080048000801575800175A00375A0020F
:10033000752000752105752200752301E5902405BF
:10034000700C8000E523452270048000800480004A
:10035000801575800175A00375A0027520007521B8
:1003600008752200752301E5902409700C8000E5D2
:100370002345227004800080048000801575800170
:1003800075A00375A00275200075210B75220075FC
:100390002301E5902411700C8000E52345227004B0
:1003A000800080048000801575800175A00375A011
:1003B0000275200075210E752200752301E521B418
:1003C000FF09E520B4FF048000802975800C75A02A
:1003D0000175A00075808075A00175A000E521253C
:1003E00025F582E5203524F583120003F58075A0FC
:0B03F0000375A0020201252202011388
:00000001FF
